:020000040800F2
:10000000680900200D300008FD2E0008FF2E0008B2
:10001000012F0008032F0008052F00080000000032
:10002000000000000000000000000000072F000892
:10003000092F0008000000000B2F00080D2F0008FA
:10004000393000083D3000084130000845300008D4
:10005000493000084D300008513000085530000884
:10006000593000085D300008613000086530000834
:10007000693000086D3000087130000875300008E4
:10008000793000087D300008813000080000000051
:1000900000000000000000000000000085300008A3
:1000A000893000088D300008913000089530000834
:1000B000993000089D300008A1300008A5300008E4
:1000C000A9300008AD300008B1300008112F000839
:1000D000B5300008B9300008BD300008000000004D
:1000E000C1300008C5300008C93000080000000019
:1000F000000000000000000000000000CD300008FB
:1001000000000000D1300008D5300008D9300008C8
:1001100000000000000000000000000000000000DF
:10012000172F0008DD300008E1300008E530000836
:10013000E93000080000000000000000000000009E
:10014000000000000000000000000000ED3000088A
:10015000F1300008F5300008F9300008FD300008E3
:100160000131000805310008000000000000000017
:10017000000000000000000000000000000000007F
:10018000000000000931000800000000000000002D
:100190000D310008113100080000000000000000CF
:1001A0001010101000100000282828000000000087
:1001B00028287C287C282800103C5038147810000F
:1001C000004C2C1008606000304850205448340027
:1001D000301020000000000008102020201008002F
:1001E0002010080808102000001054385410000097
:1001F0000010107C10100000000000000018081013
:10020000000000007C000000000000000030300012
:10021000000408102040000038444C546444380066
:1002200010301010101038003844040810207C00E2
:100230007C08100804443800081828487C08080086
:100240007C40780404443800182040784444380046
:100250007C040810202020003844443844443800EE
:100260003844443C04083000003030003030000096
:10027000003030003010200008102040201008000E
:1002800000007C007C000000201008040810200002
:100290003844040810001000384404345C4438002A
:1002A000102844447C444400784444784444780012
:1002B000384440404044380070484444444870004A
:1002C0007C40407840407C007C404078404040008A
:1002D0003844405C44443C004444447C444444002E
:1002E00038101010101038001C080808084830009A
:1002F00044485060504844004040404040407C00EA
:10030000446C545444444400444464544C444400B5
:1003100038444444444438007844447840404000E1
:1003200038444444544834007844447850484400A5
:100330003C404038040478007C101010101010006D
:100340004444444444443800444444444428100051
:10035000444444545454280044442810284444003D
:1003600044444428101010007C04081020407C00F5
:1003700038202020202038000040201008040000F1
:100380003808080808083800102844000000000059
:100390000000000000007C002010080000000000A9
:1003A000000038043C443C00404058644444780019
:1003B00000003840404438000404344C44443C00BD
:1003C000000038447C403800382420702020200071
:1003D00000003C44443C04384040586444444400D9
:1003E00010003010101038000800180808084830B5
:1003F0004040485060504800301010101010380035
:1004000000006854544444000000586444444400CC
:1004100000003844444438000000586464584040A8
:100420000000344C4C340404000058644040400048
:1004300000003C4038047800202070202024180060
:1004400000004444444C340000004444442810005C
:10045000000044445454280000004428102844005C
:1004600000004444443C043800007C0810207C0018
:10047000102020402020100000101010101010003C
:100480002010100810102000000000205408000068
:10049000000000000000000000000000000000005C
:1004A0000000001818181818181800001818000074
:1004B0000012362448000000000000000000000088
:1004C000000000242424FE484848FE484848000014
:1004D00000001038545450301C1414545438101068
:1004E00000000044A4A8A8A8541A2A2A2A440000FC
:1004F00000000030484848506EA494888976000077
:1005000000606020C000000000000000000000004B
:10051000000204080810101010101008080402004F
:10052000004020101008080808080810102040009B
:10053000000000001010D63838D61010000000005F
:100540000000000010101010FE101010100000002D
:10055000000000000000000000000000606020C0FB
:1005600000000000000000007F000000000000000C
:1005700000000000000000000000000060600000BB
:10058000000001020204040808101020204040006E
:100590000000001824424242424242422418000015
:1005A000000000107010101010101010107C0000CF
:1005B0000000003C4242420404081020427E000039
:1005C0000000003C42420418040202424438000089
:1005D000000000040C14242444447E04041E000083
:1005E0000000007E4040405864020242443800004F
:1005F0000000001C2440405864424242241800007D
:100600000000007E42440808101010101010000076
:100610000000003C4242422418244242423C000076
:100620000000001824424242261A02022438000028
:10063000000000000000181800000000181800005A
:100640000000000000001818000000181808300012
:1006500000000002040810204020100804020000DE
:10066000000000000000FE000000FE00000000008E
:100670000000004020100804020408102040000080
:100680000000003C42426202040808001818000002
:1006900000000038445AAAAAAAAAB442443800006A
:1006A0000000001010182828243C444242E70000B3
:1006B000000000F8444444784442424244F80000B8
:1006C0000000003E4242808080808042443800002A
:1006D000000000F8444242424242424244F80000D4
:1006E000000000FE424848784848404242FE000070
:1006F000000000FE424848784848404040E0000082
:100700000000003C44448080808E844444380000D3
:10071000000000E7424242427E42424242E700007D
:100720000000007C1010101010101010107C000041
:100730000000003E0808080808080808080888F0B3
:10074000000000EE444850705048484444EE000019
:10075000000000E0404040404040404042FE000079
:10076000000000EE6C6C6C6C5454545454D6000071
:10077000000000C7626252524A4A4A4646E20000FE
:1007800000000038448282828282828244380000E3
:10079000000000FC424242427C40404040E00000F9
:1007A00000000038448282828282B2CA4C3806003D
:1007B000000000F8444444784848444442E30000C0
:1007C0000000003E4242402018040242427C0000E9
:1007D000000000FE921010101010101010380000D1
:1007E000000000E74242424242424242423C000094
:1007F000000000E74242442424282818101000007A
:10080000000000D692929292AAAA6C44444400003E
:10081000000000E7422424181818242442E70000AE
:10082000000000EE4444282810101010103800007A
:100830000000007E840408081020204242FC0000D2
:10084000001E1010101010101010101010101E00AC
:1008500000004040202010100804040202020101A0
:100860000078080808080808080808080808780038
:10087000000814220000000000000000000000003A
:10088000000000000000000000000000000000FF69
:1008900000601000000000000000000000000000E8
:1008A000000000000000003C421E2242423F0000C7
:1008B000000000C04040405864424242645800007A
:1008C000000000000000001C22404040221C0000EC
:1008D000000000060202021E22424242261B0000C5
:1008E000000000000000003C427E4040423C00000E
:1008F0000000000F1110107E10101010107C00006E
:10090000000000000000003E444438403C42423CAD
:10091000000000C04040405C6242424242E70000AA
:10092000000000303000007010101010107C00002B
:100930000000000C0C00001C0404040404044478AF
:10094000000000C04040404E4850684844EE00005F
:10095000000000701010101010101010107C00001B
:1009600000000000000000F64949494949ED000037
:1009700000000000000000DC6242424242E700004A
:10098000000000000000003C42424242423C0000A5
:1009900000000000000000D864424242645840E079
:1009A000000000000000001E22424242261A0207F8
:1009B00000000000000000EE3220202020F800009F
:1009C000000000000000003E42403C02427C00006B
:1009D000000000000010107C10101010100C00001F
:1009E00000000000000000C642424242463B0000B8
:1009F00000000000000000E742242428101000003E
:100A000000000000000000D79292AAAA444400000F
:100A1000000000000000006E241818182476000062
:100A200000000000000000E742242428181010E015
:100A3000000000000000007E44081010227E00002C
:100A4000000304040404040804040404040403006C
:100A50000808080808080808080808080808080816
:100A6000006010101010100810101010101060000E
:100A700000000000000020520C00000000000000F8
:100A800038B5040001D1012032BD606A28B900F0F8
:100A9000E9F805D00021E16102E0002020616061F9
:100AA0000020A06204F15005687820B90021297067
:100AB000204600F052FB0220687000F0E5F9606803
:100AC000A168E26800F4827001F404410843217CCB
:100AD00002F400621043227D01F002010843A16983
:100AE00002F001021043227F01F40071084394F8E0
:100AF000201002F038021043A26A01F0800108437E
:100B0000216802F4005210430860A06994F8241090
:100B10002268000C00F0040001F01001084350604E
:100B20002068C16921F40061C16100206860012171
:100B3000697032BD2DE9F84300F0ACF8984608BF63
:100B4000022000F08D800120387000F079FB797868
:100B5000012918BF02264BD1002C18BFB9F1000F94
:100B60007BD0032179707E602C63A5F83490A5F8C2
:100B70003690AE63AE87EE876E642E64AB68B3F5D5
:100B8000004F09D129680B6823F040030B602968E6
:100B90000C6844F480440C6029680B685C0603D43C
:100BA0000B6843F040030B604446E968B1F5006F01
:100BB000696821D1002918BFB9F1010F00F07FF851
:100BC000804604E0296B0A88C26000F055F8E88E80
:100BD000002833D0286881688A07F3D400F030FBFE
:100BE000A0EB0800A04204D314F1010FEFD00326BC
:100BF00034E0002CEBD1FAE7002918BFB9F1010F5E
:100C000000F051F8804606E0296B0A780273286BE1
:100C1000411C00F033F8E88E80B1286881688A07AB
:100C2000F2D400F00DFBA0EB0800A04203D314F1B6
:100C3000010FF0D0DBE7002CEDD1D8E7424621468A
:100C4000284600F0A7F908B120207860A86810B9FC
:100C500000F019F8009A786800B1012600F006F853
:100C6000BDE8F2836068B0F5827F7047012078703C
:100C70000021397030467047286B811C2963E88E4B
:100C8000411EE986704700962968CA680092896803
:100C900000917047054605F1500700263878012875
:100CA0000C469146704709D1296B2B680A781A7354
:100CB000296B4A1C2A63E98E4A1EEA86704709D1CD
:100CC000296B2B680A88DA60296B8A1C2A63E98EF3
:100CD0004A1EEA86704730B500F15004002325789B
:100CE000012D01D1022030BD0125257009B115006B
:100CF00001D1012327E06578012D18BF022322D1FD
:100D000003256570636001638286C286836383877F
:100D1000C3870364C168002919BF0FF299124264A6
:100D20000FF2711141648168B1F5004F05D100F0F7
:100D30000EF80D6845F480450D6001684A6842F080
:100D4000A00200F00BF800202070184630BD0168AA
:100D50000A6822F040020A60016870474A60006831
:100D600001684A0603D4016841F040010160704700
:100D70007CB5044622685168936803F0410001285D
:100D800006D1480604D5216C2046BDE87C400847C2
:100D9000980706D50D0604D5616C2046BDE87C4059
:100DA000084713F4B07F62D0880660D55D060ED583
:100DB00094F8510003284DD0606D40F00400606548
:100DC00000250095D66800969568009500989D06C8
:100DD0000CD5606D40F001006065002500959668B7
:100DE0000096106820F040001060009AD80509D5E0
:100DF000626D42F0080262650020009022689068EF
:100E00000090009A606D90B32068426822F0E00282
:100E10004260012011F0030F84F8510022D02068B5
:100E20000FF24D054168890889004160E06C28B1E6
:100E30000565E06C00F081FA00F020F8A06CB0B11C
:100E40000565A06C00F079FA88B1606D40F0400053
:100E5000606573BD00200090D16800919268009297
:100E6000009873BD2046BDE8764000F069BB73BDB5
:100E7000806B0021C187C18600F062BB18B1606D34
:100E800040F04000606570472068016821F0400133
:100E900001607047016B03680A781A73016B4A1C82
:100EA0000263C18E4A1EC286C18E002908BF00F0AF
:100EB000A9B87047016B03680A88DA60016B8A1C65
:100EC0000263C18E4A1EC286C18E002908BF00F08F
:100ED00099B870472DE9F843089C05460E469046A0
:100EE0001F4600F0ADF9381A241800F0A9F9814620
:100EF000684801684901090D6143009105E00098C7
:100F000000B900240098401E009028688168314094
:100F1000B1420CBF01200020404532D017F1010F33
:100F2000F3D000F08DF9A0EB0900A04201D2002C13
:100F3000E5D12868416821F0E00141606868B0F5BA
:100F4000827F08D1A868B0F5004F18BFB0F5806F58
:100F500001D100F019F8A86AB0F5005F09D128683E
:100F6000016821F4005101602868026842F40052CF
:100F7000026005F15000012141700022027003203F
:100F800000E00020BDE8F2832868016821F04001FC
:100F9000016070477CB504463E483F4E0B460168F1
:100FA0001825B1FBF5F5B5FBF6F64FF47A7046431C
:100FB00000966168B1F5827F09D1009280210022FC
:100FC0002046FFF787FF58B100F00CF876BD009877
:100FD00030B10098401E0090216888680106F6D460
:100FE000002076BD606D40F02000606503207047F2
:100FF00018B1606D40F0200060657047BDE8164094
:1010000000F09EBA1CB500F025F80246009888B1A1
:1010100000F019F8FAD52068416821F0A00141607C
:1010200020466421FFF7B6FFFFF7E2FF00F021F84A
:1010300005D0E3E7606D40F020006065EBE7BDE8B8
:10104000164000F07EBA0098401E00902168886823
:101050008107704704460F4801681822B1FBF2F27D
:101060004FF47A73B2FBF3F364204343009300F030
:10107000E7B8A06838B9002100912168CA680092D9
:10108000896800910098012184F85110606D002852
:10109000204670470C00002040420F0081B0002025
:1010A000009000225D48416841F480414160416800
:1010B00001F48041009100990092036843F080534D
:1010C0000360006800F080500090009801B0704705
:1010D00070B586B000F08BF82568514EB5423AD114
:1010E0000020009000224F484F4D416941F480712B
:1010F0004161416901F480710091009900921E21C3
:10110000036843F001030360032200F075F80191C6
:1011100002920021039101A900F014FA43482860CB
:1011200000216960E9604FF400604FF480616861FC
:1011300029614FF4807000224FF40051E861AA60E9
:10114000A9612A626A62284600F080F808B100F0BE
:10115000E1FBA563AC6306B070BD10B586B000F0CE
:1011600046F82168334C2F48A1421FD1002100913D
:10117000426942F4805242610022416901F4805187
:10118000009100990092A021036843F001030360DD
:10119000022200F031F800F036F80022002123206E
:1011A00000F0D4FB232000F0EEFB1EE0224A914227
:1011B0001BD100210091026942F4804202610022A9
:1011C000016901F480410091009900924FF444417B
:1011D000036843F0020303600222006800F002008B
:1011E00000900098154800F00EF806B010BD0446B7
:1011F00001A8142100F0F2BB006800F0010000908B
:1012000000980B487047019102920021039103223C
:1012100005210591049201A900F094B940380240DB
:1012200000200140303802401004002010640240C9
:10123000000002400030014000380040000402403D
:1012400001484068704700BF0000002070B50446A8
:10125000FFF7F6FF06460CB9012070BD04F1340516
:10126000022068700021297020680268520852002C
:10127000026022681068C10722D5FFF7E1FF801BDA
:101280000628F6D32020286203216970032070BD50
:10129000B0F5005F09D1032E42D8DFE806F00C0A52
:1012A0000C02B1F1C07F3BD105E0022E03D9F61E3E
:1012B00036D1C80134D5402129620120687070BD43
:1012C0001368DFF8300261680340A0680B43E168EF
:1012D000034320690B4361690343A0690B43E16940
:1012E0000343206A0B43616A0343042903D1E16A83
:1012F000206B01430B43136023685A69606AD2086C
:10130000042840EAC2020BD1A66AE16A324339B12D
:10131000A0690028BCD1002E18BF022EC9D0C0D3AE
:101320005A61204600F0F4F8A96A3F228A408260A0
:10133000002028620121697070BD90F835100229E3
:1013400003D08022426501207047052180F83510C6
:1013500000680268520852000260002070472DE9C0
:10136000FC41044604F134060020634900904FF428
:101370001650776A0A683D68B2FBF0F8B06A082137
:1013800000F0BDF80ED02068026853070AD5026845
:1013900022F004020260B06A8140B960316A41F013
:1013A00001013162B06A25FA00F1CA070BD5216844
:1013B0004A69110607D5012202FA00F0B860306AC6
:1013C00040F002003062042100F098F808D0216853
:1013D0000A68930704D5B860306A40F004003062B0
:1013E000102100F08BF819D021680A68130715D571
:1013F000B860206801684A0307D50068010309D571
:10140000716959B12046884708E00168CA0501D4CE
:1014100000F079F8F16809B120468847B06A2021C8
:1014200000F06DF843D021680A68D3063FD5B86054
:1014300020687178052920D1026822F01602026026
:101440002068416921F080014161F068002804BFF3
:101450007069002802D0206800F055F83F22B06A79
:101460008240BA60012171700020F169307000295A
:101470003CD02046BDE8FC41084701684A0307D537
:10148000006801030FD4316989B1204688470EE016
:101490000168CA0507D4016821F01001016001202C
:1014A000707000213170B16809B120468847306AF8
:1014B000E0B1306AC10713D505207070206801685B
:1014C0004908490001600098401C8045009003D302
:1014D00020680168CA07F6D40120707000213170BD
:1014E000B16919B12046BDE8FC410847BDE8F38168
:1014F000000000003F8010F00C000020B06A01FAEC
:1015000000F005427047016821F008010160704752
:1015100030B5016808A401F0FF02103A1823B2FBAD
:10152000F3F2890A8902A55CC565042A28BF091D52
:101530008165084630BD0000000610160006101632
:10154000704770472DE9F84F0D464FF00008674986
:101550000F22012304462E6803FA08F000EA060968
:10156000814540F0B7804FEA480C032606FA0CF696
:101570006FEA060E6E6806F00307012F1CBF06F027
:101580000306022E11D1A668EF680EEA060607FAD6
:101590000CF73E43A660666826EA00006E68C6F354
:1015A000001606FA08F6304360604FEA88002E798C
:1015B00006F00306032E1FD0E668AF680EEA0606A3
:1015C00007FA0CF73E43E6602E7906F00306022E7A
:1015D00012D14FEAD80604EB860600F01C07D6F8B5
:1015E00020A002FA07FB2AEA0B0AD5F810B00BFA82
:1015F00007F747EA0A07376226680EEA06072E79D8
:1016000006F0030606FA0CF63E4326606E6816F4F2
:10161000403F5FD0002600964FEA980C0E68DFF836
:10162000D0E046F480460E6000F00C000E6806F430
:1016300080460096009E5EF82C7002FA00F627EABB
:1016400006062C4FBC4208BF002713D02A4FBC42CD
:1016500008BF01270ED0294FBC4208BF022709D07E
:10166000274FBC4208BF032704D0264FBC420CBF03
:101670000427072707FA00F030434EF82C006FEAE2
:10168000090C214886680CEA060E6E68F70248BF0E
:1016900049EA0E0EC0F808E0C6680CEA060E6E684D
:1016A000B70248BF49EA0E0EC0F80CE046680CEAE3
:1016B000060E6E68B70348BF49EA0E0EC0F804E094
:1016C00006680CEA060E6E68F60348BF49EA0E0E7D
:1016D000C0F800E008F10108B8F10F0F7FF63BAF4A
:1016E000BDE8F18F02B909048161704744380240B6
:1016F0000838014000000240000402400008024097
:10170000000C024000100240003C014080B500F097
:1017100085F900F040F800F09BF9002000900022CD
:101720007048016841F4800101600021006800F404
:10173000800000900098382000F008F9382000F070
:1017400022F900F075F800F00BFA00F01BFA00F037
:10175000C3FA002000F08EFA00F02AFB0A2000F005
:101760007FFB9FED650B00F042FB0023002203216D
:10177000012000F065FB42F2107000F071FB0023C5
:1017800000220021002000F05BFB00F07DFB002028
:1017900000F070FAF9E780B592B006A8302100F0A9
:1017A0001DF901A8142100F019F9002000904FF450
:1017B00080334D48016841F080510160002100688C
:1017C00000F08050009000984D480091026842F46B
:1017D000404202600122006800F44040009006A8E8
:1017E0000099069202214FF480020C910D9219216A
:1017F000C8220E910F920221042207931091119298
:1018000000F08CFB08B100F085F8022102910F2056
:101810004FF480510190002204910392059203211C
:1018200001A800F013FD08B100F074F813B000BD7A
:1018300010B58CB008A8102100F0D0F8684620211F
:1018400000F0CCF8294C2A4820604FF48031012068
:101850002061207600222748A06261600120E061BB
:1018600084F830006061A26084F82020E262E260C7
:10187000204600F0ABFD08B100F04CF801200890C4
:10188000099002220A9208A9204600F0C7FD08B17B
:1018900000F040F80422049201201A4900900190BF
:1018A0000290002206910792ADF814200392694637
:1018B000204600F0E1FE08B100F02CF8022100F013
:1018C00023F808B100F026F8032100F01DF808B154
:1018D00000F020F8042100F017F808B100F01AF821
:1018E0000CB010BD303802404038024020050020C6
:1018F000002001400100000F0000000080842E4104
:101900000070004001000F000091019120466946DF
:1019100000F0B2BE72B6FEE70901020002D4294807
:1019200081547047284B02F00F021A4402F8041C3D
:101930007047264B19684FF6FF020002114000F471
:10194000E0600843224908431860704738B51F4BD0
:101950001C68C4F30223C3F10704052C28BF042428
:101960001D1D072D34BF0023DB1E012505FA04F4DD
:10197000641E2140994005FA03F35B1E1A4011438F
:10198000BDE83440C8E7010007D4012200F01F0180
:10199000104B8A40400943F82020704710B5401E84
:1019A000B0F1807F01D3012010BD0B4C60600F218E
:1019B0004FF0FF30FFF7B0FF0021A160072020604B
:1019C000002010BD00E400E018ED00E00CED00E0A8
:1019D0000000FA0500E100E010E000E0002200F065
:1019E00019BF30B4002513E050F8042BD30744BFCF
:1019F000A9F101039A18091F042942F8045BFAD2DD
:101A000013468C0744BF15809B1CC90748BF1D7037
:101A100050F8041B0029E7D130BC704780B50B4853
:101A2000016841F400710160026842F48062026062
:101A3000016841F4807101600320FFF77AFF0F20F5
:101A400000F002FFFFF72AFB002002BD003C02402D
:101A50002DE9F04186B068461421FFF7BFFF00244E
:101A60003B483C4DDFF8F080059443F201060168E5
:101A70003A4C41F0040101604FF40057026802F053
:101A800004020592002205990592036843F0800341
:101A90000360016801F080010591059905920368D2
:101AA00043F001030360016801F00101059105990C
:101AB00005924FF40051036843F00203036000688D
:101AC00000F00200059005982046FFF70BFE00226B
:101AD00040212846FFF706FE002231464046FFF728
:101AE00001FE0097012101910022029203926946B2
:101AF0002046FFF727FD012000210090019102916F
:101B000028466946FFF71EFD402100910122002171
:101B100002910391019269462846FFF713FD0120C7
:101B20000190002202920392009669464046FFF718
:101B300009FD0097012002210190002203910292E9
:101B400069464046FFF7FEFC06B0BDE8F0810000A4
:101B50003038024000000240000402400008024009
:101B600080B51148114901604FF482720121426031
:101B700041610222382100F026F800F01DF800B182
:101B80002AE001BD80B50A480A4901604FF482721B
:101B900042601821022200F016F8436100F00CF8B0
:101BA00000B119E001BD00007004002000300140C8
:101BB000C8040020003800408261036243628362EF
:101BC000C162FEF75DBF0261C16100234FF4007284
:101BD0000A218360C3607047BDE80140FFF79ABEE9
:101BE00001B50029384819BF012201210022012135
:101BF000FFF778FD012269463448FFF76CF801BD14
:101C000070B5CB0800EBC310314B1C5C1AB100F06F
:101C100008F8214303E000F004F824EA0101195414
:101C200070BD8D0801EB5576F6080122A1EBC601C7
:101C300002FA01F1704770B50024254D002104F12E
:101C4000B000FFF7CDFF00F0AFF800F010F800266D
:101C5000E00150FA86F00121285CFFF7C1FF761CF5
:101C6000F0B28028F4DB641C082CE7DB70BD002197
:101C70001020B5E780B5164B4FF4806120B1FF22EC
:101C8000184600F0C3FD02E01846FFF7A7FEBDE8C6
:101C90000140D0E710B50F4C012240212046FFF74C
:101CA00021FD642000F0DCF8002240212046FFF7EF
:101CB00019FD642000F0D4F82046BDE81040012250
:101CC0004021FFF70FBD0000000402407004002017
:101CD000100000200000024080B5322000F0C0F863
:101CE000FFF7D8FFC82000F0BBF80021AE20FFF7B7
:101CF00077FF00F059F8FFF7BAFF00214020FFF707
:101D00006FFF0021B020FFF76BFF00218120FFF75C
:101D100067FF0021FF20FFF763FF0021A120FFF7ED
:101D20005FFF0021A620FFF75BFF0021A820FFF73F
:101D300057FF00213F20FFF753FF0021C820FFF786
:101D40004FFF0021D320FFF74BFF00F02DF80021BB
:101D5000D520FFF745FF00218020FFF741FF00213C
:101D6000D920FFF73DFF0021F120FFF739FF0021C7
:101D7000DA20FFF735FF00211220FFF731FF0021A5
:101D8000DB20FFF72DFF00213020FFF729FF002186
:101D90008D20FFF725FF00211420FFF721FFBDE86C
:101DA00004400021AF201BE70021002018E70000BD
:101DB00001224FF400511E48FFF794BC1CB5020AE3
:101DC0008DF800208DF801000022194C00F00AF86F
:101DD0000223022269461748FEF7ACFE012200F0FA
:101DE00001F813BD4FF400512046FFF77BBC10B53E
:101DF00051EC100B0022104B00F046FD4FF08042DA
:101E00000E4B00F065FE00F035FF04464FF4045021
:101E1000FFF7D4FFC4F30D0040F48040FFF7CEFF7E
:101E20002401A40C44F48040BDE81040C6E7000043
:101E300000040240C804002080842E41E17A6441FD
:101E40000002890100F4807001F0C00152010843D2
:101E500002F020025B00104303F002031843ADE7D9
:101E600038B50446FFF7ECF914F1010F054602D02E
:101E7000044801786418FFF7E3F9401BA042FAD345
:101E800031BD00BF000000201CB500F029F80FF2A2
:101E9000580200211C2000F067FF0121009110234F
:101EA0000FF2500210210C2000F05EFF00F018F835
:101EB0000FF250022021282000F056FF00F010F809
:101EC0000FF248023021042000F04EFF40F2DC54B3
:101ED0002046FFF7C5FF2046BDE81640FFF7C0BF0C
:101EE00001200090102370474F4C45442054455327
:101EF00054000000302E3936222053534431333001
:101F00003600000036345831323800007777772EAB
:101F10006C636477696B692E636F6D002DE9F8431C
:101F2000040016D02078DFF81463C10713D5B06819
:101F300000F00C00042807D0B06800F00C0008285E
:101F40003ED1706841023BD53068810303D560689B
:101F5000002800F005812078B94F810719D5B068B5
:101F600010F00C0F07D0B06800F00C0008285CD10E
:101F70007068410259D43068810703D5E0680128B0
:101F800040F0EE803168206921F0F80141EAC0019B
:101F90003160217808076CD56069AA49002862D0B1
:101FA00001220A60FFF74CF90546706F810700F1C6
:101FB000D980FFF745F9401B0228F6D903203AE102
:101FC0006068B0F5803F04D1306840F48030306004
:101FD00011E0B0F5A02F306806D140F480203060C9
:101FE000316841F4803105E020F4803030603168A0
:101FF00021F480213160606858B1FFF721F905466E
:1020000030688103A7D4FFF71BF9401B6528F7D37D
:10201000D4E7FFF715F90546306881039BD5FFF734
:102020000FF9401B6528F7D3C8E7E06870B10121BC
:102030003960FFF705F905463068810700F1BE8079
:10204000FFF7FEF8401B0228F6D9B7E73860FFF724
:10205000F7F80546316888079BD5FFF7F1F8401B74
:102060000228F7D9AAE70860FFF7EAF80546706F7B
:10207000810777D5FFF7E4F8401B0228F7D99DE7E1
:102080000528306F06D140F004003067306F40F013
:10209000010005E0400840003067306F20F0040088
:1020A000306741F28938A06868B1FFF7C9F8814606
:1020B000306F810700F18F80FFF7C2F8A0EB0900B5
:1020C0004045F5D37AE7FFF7BBF88146306F8107CB
:1020D00040F18180FFF7B4F8A0EB09004045F5D34B
:1020E0006CE7FFF7ADF8401B022840F2878065E7F8
:1020F000FFF7A6F8001B022840F298805EE7002058
:102100003866FFF79DF804463068810140F19280FF
:10211000FFF796F8001B0228F6D94FE701281FD0D9
:102120007068E26900F48001914202BF00F03F0153
:10213000226A914201BF47F6C0710140626AB1EB69
:10214000821F0DD1A26A520800F44031521EB1EB39
:10215000024F02BF00F07060E16AB0EB016F69D01E
:10216000012068E0207841073AD5306C0025C10095
:102170000AD400950125316C41F080513164306CF6
:1021800000F0805000900098DFF8BC80D8F8000084
:10219000C1051BD4D8F8000040F48070C8F80000D6
:1021A000FFF74EF88146D8F80000C1050ED4FFF7BE
:1021B00047F8A0EB09000228F5D9FFE6306821694D
:1021C00020F0F80040EAC1003060E2E6A068012893
:1021D0007FF456AF5AE71DB1306C20F08050306468
:1021E000A06938B3B16801F00C01082996D0022823
:1021F00085D100203866FFF723F805463068810155
:102200003FF56FAFE269206A616A0243A06A400845
:1022100042EA8112401E42EA0042E06A42EA00625B
:10222000726001213966FFF70BF8044630688101BE
:102230007FF55EAF0020BDE8F28300BF00380240AA
:1022400000004742800E4742007000402DE9F041F7
:1022500004000F4678D0404E306800F00700B842C6
:1022600002D200F073F86FD120683C4D810712D57F
:10227000400703D5A96841F4E051A960207801071F
:1022800003D5A86840F46040A860A968A06821F060
:10229000F0010143A9602178C8074DD56068012885
:1022A00002D129688A0305E0022818BF032803D158
:1022B00029688A0103D447E029688A0744D5A968B8
:1022C000890840EA8100A860FEF7BAFF8046A86846
:1022D000616800F00C00B0EB810F2DD0FEF7B0FF6D
:1022E000A0EB080041F289318842F0D3032021E0BD
:1022F0002078410705D5AA68E06822F4E05202433D
:10230000AA602178080706D5A968206921F46041F0
:1023100041EAC001A96000F029F8AA681049114BF0
:10232000C2F30312895CC84018600F48006800F0CF
:102330008BFA0020BDE8F081306800F0070087428A
:10234000D6D200F003F8D3D00120F3E7377031681C
:1023500001F00701B9427047003C024000380240DA
:10236000B42F00080C0000200800002030B5144CE9
:10237000606800F00C00042802D0082802D01DE09C
:10238000104830BD226820680023410202F03F025D
:1023900004D525680B49C5F3881003E020680A4975
:1023A000C0F38810A1FB000100F00CFD2168C1F30F
:1023B0000141491C4900B0FBF1F030BD024830BD7D
:1023C0000438024040787D010024F40070B50446D2
:1023D00000250CB9012070BD04F13C06706820B9DD
:1023E0002046FEF775FEB56035707068C10610D4E2
:1023F000706820F4885040F002007060204600F0C1
:10240000B1F8B560716821F0020141F0010171601D
:1024100000E0012500203070284670BD78B50246E6
:102420000020009092F83C30012B01D1022072BDB7
:10243000012082F83C0007240B6810680A2B12D395
:102440000A3BC56803EB43039C4025EA0404C460CF
:10245000C3680D688C68A5F10A0606EB4606B44011
:102460002343C3600FE0056903EB430304FA03F35E
:1024700025EA0303036103690D688C6805EB4505D4
:10248000AC40234303611F244B68072B0CD25B1E17
:10249000456B00F059F84463436B4D680C886E1E21
:1024A00000F04DF843631BE00D2B0CD2DB1F056BD6
:1024B00000F04AF80463036B4D680C88EE1F00F0CF
:1024C0003EF803630CE00D3BC56A00F03DF8C462C2
:1024D000C36A4D680C88A5F10D0600F030F8C362A0
:1024E0005F4B984226D10C685E48122C07D10368D6
:1024F00023F400030360046844F4800404600B6860
:102500005B4CA34218BF112B14D1036823F4800342
:102510000360056845F4000505600868A04209D11C
:102520005249514C0B68B3FBF4F40A204443009425
:1025300000F010F8002182F83C10002072BD06EB7C
:102540008606B4402343704703EB83039C4025EA8F
:102550000404704702E00098401E00900098002894
:10256000F9D170473F4A116821F440311160136876
:1025700041680B4313600268536823F4807353600F
:102580005168036941EA03215160516821F04071AB
:102590005160536881680B435360936823F4006370
:1025A00093609368C1680B4393603249836A8B429E
:1025B00010D0936823F0706393609368816A0B4333
:1025C0009360936823F0405393609368C16A0B4310
:1025D000936007E0916821F070619160916821F04B
:1025E00040519160916821F0020191609168037EF1
:1025F00041EA4301916090F82010002951680CD005
:1026000041F400615160516821F4604151605168AA
:10261000436A5B1E41EA433101E021F400615160ED
:10262000D16A21F47001D162D16AC3695B1E41EAAB
:102630000351D162916821F400719160916890F822
:10264000303041EA43219160916821F480619160CA
:102650009168406941EA8021916070470000000064
:10266000002001400423014040420F000C000020E4
:10267000120000100100000F70B590F83C20012AF4
:1026800001D1022070BD012280F83C2007240A6895
:1026900003680A2A12D30A3ADD6802EB4202944028
:1026A00025EA0404DC60DA680D688C68A5F10A0686
:1026B00006EB4606B4402243DA600FE01D6902EBE8
:1026C000420204FA02F225EA02021A611A690D684E
:1026D0008C6805EB4505AC4022431A611F259A6BB7
:1026E00022F440129A639A6B0C69641E42EA045207
:1026F0009A639C6B4E680A6900F07AF8AC439C635D
:102700009C6B4E680A690D8800F072F82C439C633C
:102710008A693C4CA2429A6822F470229A600CD0DA
:102720009C688A6914439C609C6824F440149C60F3
:102730009C68CA6914439C6003E09A6822F44012C2
:102740009A604A7D002A5A6814BF42F4806222F4DB
:1027500080625A600A7D002A5A6814BF42F480528F
:1027600022F480525A604A68012A04D01ED3032AF8
:1027700013D009D31AE05C69240B24035C615C6903
:10278000CA6814435C6119E09A69120B12039A61DA
:102790009C69CA6814439C6110E0DA69120B120349
:1027A000DA61DC69CA681443DC6107E01A6A120B5B
:1027B00012031A621C6ACA6814431C620F4CA342BB
:1027C00011D10B680E4A122B03D1146844F4800413
:1027D000146009680C4B994218BF112903D1116884
:1027E00041F400011160002280F83C20002070BDFF
:1027F000F61CB61A06EB8606B5407047002001406D
:102800000423014001000F001200001062F30F22A8
:1028100062F31F4200B500BF13009646944610397C
:1028200028BFA0E80C50FAD85FEA417C28BF0CC052
:1028300048BF40F8042BC90728BF20F8022B48BF27
:1028400000F8012B00BD000038B50D4D0D4B2A7866
:1028500004464FF47A711868B1FBF2F2B0FBF2F063
:10286000FFF79CF850B9102C08D2002221464FF0F7
:10287000FF30FFF76BF8AC60002032BD012032BDA5
:10288000000000200C000020F0B540F2FF7581EA46
:10289000030C0CF0004C15EA11541DBF15EA135738
:1028A000AC42AF42E5E0BC41C1F31301C3F31303F3
:1028B000801A994143F4801304D2641E40004941B8
:1028C00080185941C90241EA5051B1FBF3F603FBAC
:1028D0001611A2FB0675D7EBC020A94102D2761EC5
:1028E00080185941C90241EA5051B1FBF3FE03FB84
:1028F0001E11A2FB0E75D7EBC020A94103D2AEF189
:10290000010E80185941890241EA9051760546EA44
:102910008E2EB1FBF3F603FB1611A2FB0675D7EB67
:102920008020A94102D2761E80185941C90241EA8D
:1029300050514EEA060EB1FBF3F603FB1611A2FB53
:102940000675D7EBC020A94102D2761E80185941E6
:10295000C90241EA5051B1FBF3F703FB1711A2FB87
:102960000735D3EBC020A94167F100070CBF004237
:1029700047F0010766F3D5274FEA1E31B80814F572
:10298000806412DDBD0775F1004250EB0E5051EB33
:10299000045111F5801F5CBF41EA0C01F0BD4CF001
:1029A0007F6141F0E0410020F0BDBD076D0840EAC5
:1029B0000E5041F48011D4F10104B4F120060ADA7A
:1029C000C4F120060200E04001FA06F3E14018439A
:1029D000B24015430EE0342C13DCC6F1200445EA66
:1029E00040056D0820FA06F2154321FA06F0A140D1
:1029F0000D43002175F1004250F1000051EB0C0134
:102A0000F0BD00205FEA0C01F0BDCFB992185B4128
:102A1000B3FA83F704BFB2FA82F6BF190B3FB7F1DE
:102A200020062FBF02FA06F3BB40C7F1200622FAA8
:102A300006F638BF3343BA401CB1E419641E33E7CD
:102A40007F4231F00041B1FA81F404BFB0FA80F660
:102A5000A4190B3CB4F120062FBF00FA06F1A140E7
:102A6000C4F1200620FA06F638BF3143A0403C1BD3
:102A70001AE7AC421ABF05EA1357AF4212E050EA18
:102A800041061CBF52EA4306BFE750EA4107304601
:102A900061461CBF41EA0551F0BD52EA430C08BF34
:102AA000C143F0BD00204FF4001616EB410F98BF54
:102AB00016EB430F08BF16EB410F24BFC14305E0DF
:102AC00016EB430F0CBF61464CEA0551F0BD000008
:102AD000B0B581EA030C0CF0004C40F2FF7515EA2A
:102AE00011541DBF15EA1357AC42AF4239E0E41947
:102AF00023EA455343F48013C90241F0004141EAFF
:102B0000505EC7021100A7FB020200284FF0000030
:102B1000EEFB01204FF00001E3FB072118BF42F05C
:102B20000102401800214941E3FB0E01A4F5806435
:102B30000F0302D252004041494154F101046CDDBF
:102B4000470872F1004250F1000051EB0451A1F529
:102B500080115CBF41EA0C01B0BD4CEA0551002078
:102B6000B0BD05EA1357AC4214BFAF4241E050EA92
:102B7000410E1CBF52EA430E02E061460020B0BD88
:102B800024423C441BD15FEA070EF6D0090302BF82
:102B900001460020AEF1140EB1FA81F7AEEB070446
:102BA00001FA07FE0C37C7F1200100FA07F7C84009
:102BB0004EEA000E23EA455343F48013A2E733F0B4
:102BC0000043B3FA83F704BFB2FA82FE77440B3FA7
:102BD000E41BB7F1200E2FBF02FA0EF3BB40C7F182
:102BE000200E22FA0EFE38BF43EA0E03BA40641CE0
:102BF00082E750EA410E14BF52EA430E6FF0000123
:102C00004FF4001717EB430F8ABF194617EB410F1C
:102C1000B5E74CEA05510020B0BDD4F10104B4F190
:102C200020070FDAC4F12007520828BF42F0010242
:102C300010FA07F501FA07F7E1BF2A43E0403843ED
:102C4000E1400FE0352C98DCC7F1200452EA400245
:102C500020FA07F218BF42F0010231FA07F0A14052
:102C60000A43002172F1004250F1000051EB0C01C7
:102C7000B0BD0000C1F30A5340F2FE329B1A14DDCE
:102C8000D3F120034FEAE17208DDC90241EA505155
:102C900041F00040D84080185040704703F2E130C6
:102CA00010B1D24382F0004070470020704700000E
:102CB000C9B2C0B2FEF7A4BF2DE9F84F81468846DD
:102CC000B9F1800FA2F12000A4BF4FF0000908F174
:102CD0000208C0B2102B00904FF0800BDFF8E0A08C
:102CE0001BD1002700990AF53E7007EB0112855CA5
:102CF0009DF8280000F031F800F029F814BF0122F7
:102D00000022E1B2FFF7D5FF761C082EF4DB7F1C12
:102D1000102FE7DB4FE0BDE8F18F082BFBD1002738
:102D200000980AEBC0019DF82800CD5D00F015F871
:102D300000F00DF814BF01220022E1B2FFF7B9FF45
:102D4000761C082EF4DB7F1C082FE3DAE8E72BFA69
:102D500006F106EB09000D42704708B9ED43EDB2EC
:102D6000002607EB080470472DE9FC471F460026A4
:102D70000A9C102F05468846914608BF4FF0080A66
:102D800012D0082F15D14FF0060A0DE000943B46F3
:102D90005FFA88F1E8B2FFF78FFF5544E8B279286F
:102DA000A4BF0025B844761CF0B219F80020002A10
:102DB000ECD1BDE8F387BDE8F14FFEF73CBF000062
:102DC00098010008D3BBD9B1B2F5803F5BD2022A8B
:102DD0001ED98C46B1FBF2F102FB11C31B0443EA7E
:102DE0001043B3FBF2FC02FB1C3380B240EA034306
:102DF000B3FBF2F002FB103240EA0C4000237047B4
:102E0000022A05D98446B0FBF2F002FB10C27047DB
:102E10004AB105D100F0010249085FEA300070476D
:102E200000220023704700F051B80B00020000217F
:102E300000207047F7D3002200237047904271EBC7
:102E4000030CF2D370B5B1FA81F4B3FA83F52C1BFD
:102E5000A340C4F1200532FA05F63343A2405FF0E7
:102E60000046E64002E05B085FEA3202841A71EB3A
:102E7000030524BF204629467641F4D302000B0007
:102E80003000002170BD70B5B1FA81F4B2FA82F55C
:102E9000C4F120046419B4F12006DAD3B2405FF023
:102EA0000044F440002502E052085FEA3303C61AEA
:102EB00071EB020E24BF3046714664416D41F3D37D
:102EC00002000B002000290070BD0000704730B4E4
:102ED00050F8041B79B10268436802440830DC07EB
:102EE00044BFA9F10104E31852F8045B43F8045B02
:102EF000091FF9D1ECE730BC70470000FEE7FEE7A0
:102F0000FEE7FEE7FEE770477047704700F00AB83B
:102F10000248FDF72DBF0248FEF721BA70040020D9
:102F2000100400200248416802788A184260704705
:102F30000000002010B5074979441831064C7C4444
:102F4000163404E00A68081D114488470146A1426E
:102F5000F8D110BD2C0000004C0000004EF6885146
:102F6000CEF20001086840F470000860BFF34F8F94
:102F7000BFF36F8F4FF00070E1EE100A7047000052
:102F800063EAFFFF58050000100000200000000069
:102F90003FFFFFFF10000000840000000000002041
:102FA000000000000248016841F4700101607047B0
:102FB00088ED00E0000000000000000001020304B2
:102FC0000607080900F00DF8002801D0FFF7B2FF4E
:102FD000AFF300800020AFF30080FEF797FB00F016
:102FE00002F80120704700F001B80000074638469B
:102FF00000F002F8FBE7000080B5AFF30080024A62
:1030000011001820ABBEFBE72600020001488047F4
:1030100001480047A52F00082D30000801000000DE
:1030200000000000100000000024F400AFF3008056
:10303000FFF794FFFFF7C6FFFFF7FEBFFFF7FEBFE6
:10304000FFF7FEBFFFF7FEBFFFF7FEBFFFF7FEBFB4
:10305000FFF7FEBFFFF7FEBFFFF7FEBFFFF7FEBFA4
:10306000FFF7FEBFFFF7FEBFFFF7FEBFFFF7FEBF94
:10307000FFF7FEBFFFF7FEBFFFF7FEBFFFF7FEBF84
:10308000FFF7FEBFFFF7FEBFFFF7FEBFFFF7FEBF74
:10309000FFF7FEBFFFF7FEBFFFF7FEBFFFF7FEBF64
:1030A000FFF7FEBFFFF7FEBFFFF7FEBFFFF7FEBF54
:1030B000FFF7FEBFFFF7FEBFFFF7FEBFFFF7FEBF44
:1030C000FFF7FEBFFFF7FEBFFFF7FEBFFFF7FEBF34
:1030D000FFF7FEBFFFF7FEBFFFF7FEBFFFF7FEBF24
:1030E000FFF7FEBFFFF7FEBFFFF7FEBFFFF7FEBF14
:1030F000FFF7FEBFFFF7FEBFFFF7FEBFFFF7FEBF04
:10310000FFF7FEBFFFF7FEBFFFF7FEBFFFF7FEBFF3
:04311000FFF7FEBF08
:040000050800302D92
:00000001FF
